:020000040800F2
:10000000D0410020993F0008752C0008772C00088B
:10001000792C00087B2C00087D2C000800000000D3
:100020000000000000000000000000007F2C00081D
:10003000812C000800000000832C0008852C00089B
:10004000B53F0008B93F0008BD3F0008C13F0008A8
:10005000C53F0008C93F0008CD3F0008D13F000858
:10006000D53F0008D93F0008DD3F0008E13F000808
:10007000E53F0008E93F0008ED3F0008F13F0008B8
:10008000F53F0008F93F0008FD3F00080140000867
:10009000932C000805400008094000080D400008A6
:1000A00011400008992C000815400008194000086C
:1000B000452D00088B2E00081D4000082140000837
:1000C00025400008294000082D4000083140000864
:1000D00035400008394000083D4000084140000814
:1000E00045400008494000084D40000851400008C4
:1000F00055400008594000085D4000086140000874
:100100000000000000000000000000006540000842
:10011000694000086D400008714000087540000803
:10012000794000087D4000088140000885400008B3
:10013000894000088D400008000000000000000019
:100140009140000895400008994000080000000018
:10015000000000000000000000000000000000009F
:1001600000000000000000009D400008A1400008C1
:10017000A540000800000000000000000000000092
:1001800000000000A940000870B5044600250CB925
:10019000012070BD04F55C76707818B93070204687
:1001A00000F074FD032070701C2008E000FB054186
:1001B000283101224A700D70002200F029F8616890
:1001C0008D42F3D30025002207E000FB054101F535
:1001D000E6710D704A7000F01BF861688D42F4D32F
:1001E00021680120A1F840004FF43F402168A1F8A8
:1001F00040202168A1F844202168A1F850202168FE
:10020000A1F8400084F8242001207070002070BD07
:10021000CA70CA600A614A616D1C704780B50121CD
:1002200000F069FE002002BD2DE9F84F04460020D1
:10023000ADF8000048F68F7A40F68F7648F60F7BCF
:100240001FE001880BEA0101018004F1280500F09C
:1002500074FC00F03FF9296940182861002120460C
:1002600000F04EFD94F8240058B1686948B994F83C
:100270002400216840F08000A1F84C00002084F8A0
:100280002400206800F144010A88ADF8022012041D
:1002900040F10981BDF8022012F00F085FD1BDF8CE
:1002A0000220D206CDD50288ADF8002004F5E6750F
:1002B000BDF80020120516D589892A78D20012FAD5
:1002C00081F100EB410004F55D7100F009F9AA88A5
:1002D000206800F059FE20680188314001802046E6
:1002E00000F0FFFCCDE7BDF800100904C9D5018876
:1002F0003140018000F021FC00F0F2F808D0AA881B
:100300002969206800F040FE2869A9690818286159
:100310000021204600F0EBFC2068B0F8501000EB04
:100320004100E9683F2900F20C4008D34A0911F066
:100330001F0F08BF521E910241F4004104E04A0819
:10034000C90748BF521C910201804BF68F7220688A
:100350000188114081F4405100F0E9FB91E700EB86
:1003600088000188ADF800101C2111FB0849BDF878
:100370000010090448D50188314009F5E67501806F
:100380002B782068A97ADA0061B900F096F8B1F804
:100390000C148F05BF0D23D0AA8829693B4600F0B5
:1003A000F3FD1DE030F823305B0400F086F806D53D
:1003B000B1F804148F05BF0D0BD0EA8805E0B1F841
:1003C0000C148F05BF0D04D02A893B46296900F023
:1003D000DBFD00F08BF841F4004141F0C0010180E9
:1003E000A9697918A96129697A182A616B6913B119
:1003F000E9688F4204D22978204600F078FC03E0B7
:100400002978204600F0EFFABDF80000000646D536
:10041000206800EB880009F1280501880BEA01013A
:1004200001802A782368A87AD10050B900F03EF8FC
:1004300000F04AF81FD0AA882969206800F092FDD0
:1004400019E033F82220520600F030F804D500F00D
:100450003BF809D0EA8803E000F042F804D02A898A
:100460002969206800F07EFD00F040F841F4404129
:1004700041F08001018020682978B0F85020CB003D
:1004800013FA82F200EB420000F024F82A69821885
:100490002A6120466B69002B02D100F031FCF0E6A6
:1004A00000F0EBFAEDE60020BDE8F28FB3F8502043
:1004B00011FA82F103EB41007047B0F8503012FAA4
:1004C00083F200EB42017047B0F8040483059B0DF2
:1004D000AB617047B0F804048005800DA8617047D7
:1004E000B0F80C0483059B0DAB6170472068297838
:1004F00000EB810001880AEA0101704710B504464B
:100500002068B0F84400000444BF2046FFF78CFE8A
:100510002068B0F8441049050AD54FF6FF31A0F81D
:100520004410204600F0F8FB0021204600F04FF870
:10053000206840308188490444BF4BF6FF718180B8
:100540008188890444BF4DF6FF7181808188C90488
:1005500011D501884FF6FB72114001804FF6F772FA
:10056000018811400180204600F0F1FB21684EF621
:10057000FF70A1F84400206840308188090510D53B
:10058000018841F0080101804FF2FF7181800188EC
:1005900041F0040101808088C0045CBF204600F067
:1005A000C8FB2068B0F84410890506D54FF6FF5106
:1005B000A0F84410204600F0ABFB2068B0F84410CF
:1005C000C90544BF4FF6FF61A0F8441010BD90F874
:1005D0007023012A01D102207047012280F8702384
:1005E000002903BF80210268A2F84C1080F8241073
:1005F000002180F870130020704700002DE9F04DB5
:1006000000F02CFA0D064CBF283404F5E67401F016
:100610007F052570C9096170E260E37090F870137E
:10062000012908BF022000F01181012180F8701318
:1006300048F68F13E178032915D8DFE801F0020F9F
:10064000070A00F019F943F400730BE000F014F905
:1006500008E000F011F943F4C06303E000F00CF986
:1006600043F480630B802678016801EB860748F627
:100670008F75B7F800C005EA0C0C48F2800346EA13
:100680000C061E433E804BF68F7894F80AA026781D
:10069000BAF1000F4CF2800748F6BF7C48F2C00E5A
:1006A00060D1B4F804A04FF6FE7B0BEA0A0A94F876
:1006B00001B0F600BBF1000F19D0B1F8502016FAC6
:1006C00082F201EB420202F58062A2F800A02278D9
:1006D00001EB82021688760604D5168835404EEA6C
:1006E0000505158000F0C1F882F02002AAE0B1F8FB
:1006F00050C016FA8CFC01EB4C0606F58166A6F894
:1007000000A0B1F850C02678F60016FA8CFC01EB78
:100710004C0C3F2A0CF20C4C0BD34FEA521E12F039
:100720001F0F08BFAEF1010E4FEA8E2242F40042C5
:1007300007E04FEA520ED20748BF0EF1010E4FEA12
:100740008E22ACF80020227801EB82021688760413
:1007500003D5168835403D43158000F07FF882F4BC
:1007600040526FE001EB86024FF6FE7A16882E406B
:1007700046F4014646F080061680B1F850202678EF
:10078000F60016FA82F201EB4202E68802F5806278
:100790000AEA06061680B1F850202678F60016FA06
:1007A00082F201EB4202268902F581620AEA06061C
:1007B00016802278667801EB8202002E168822D1FC
:1007C000760403D516882E4037431780227801EB34
:1007D000820217887F0604D517882F404EEA070744
:1007E0001780227801EB820217883D404EEA05050A
:1007F00000F02EF808EA050585F440551D431580E4
:1008000000F033F81EE0760403D516882E403E43F0
:100810001680227801EB82021688760604D51688A7
:100820002E404EEA06061680227801EB82021688D8
:1008300035403D4300F00CF80CEA05051D431580DA
:1008400000F00CF81A430A8000F01BFABDE8F08DA6
:100850001580227801EB820215887047227801EB1F
:1008600082010A8808EA02027047227801EB8201BD
:100870000A880CEA020270472578016801EB8501BD
:100880000D882B4070472DE9F04301F07F021C23B7
:1008900013FB02020B064CBF02F1280402F5E674BA
:1008A00001F07F022270C909617090F8701301296C
:1008B00008BF022000F09580012180F87013D0F865
:1008C0000080217894F80A90657808EB810CB9F1E2
:1008D000000F4BF68F724CF2800E48F2800148F602
:1008E000BF7348F2C00748F68F7617D155B1BCF8F0
:1008F000002052063FD5BCF8002032403A43ACF805
:10090000002038E0BCF800305B0461D5BCF8003052
:1009100033404EEA0303ACF8003059E0002DBCF838
:10092000005030D16D0406D5BCF8005035404EEA79
:100930000505ACF80050257808EB8505B5F800E012
:100940005FEA4E6E07D5B5F800E006EA0E0E47EAFC
:100950000E0EA5F800E0257808EB8505B5F800E057
:1009600006EA0E063E432E80267808EB8606378878
:100970003A400A433280227808EB820214882340EE
:10098000194311802BE06D0406D5BCF800503540AA
:100990004EEA0505ACF80050257808EB850CBCF84C
:1009A00000506D0605D5BCF8005035402F43ACF81B
:1009B0000070277808EB87073D882E404EEA060630
:1009C0003E80267808EB860637883B400B43338011
:1009D000237808EB83031C8822401143198000F020
:1009E00050F9BDE8F08370B500F038F804F5E6740E
:1009F00001F07F06226163610022A26162702670AD
:100A00006269E168914232BF521A11460022626166
:100A1000F6000068B0F850304A0816FA83F600EB8A
:100A200046063F2901F0010506F20C4608D34A09A3
:100A300011F01F0F08BF521E910241F4004102E065
:100A400005B1521C910231804BF68F72217800EB78
:100A500081000188114081F440515DE001F07F0484
:100A60001C2515FB0404704701F07F011C2212FBBA
:100A70000100D0F8E40180B2704770B5044601F07F
:100A80007F001C2515FB004000F128050020A8610F
:100A90006B610120687001F07F016869EE682A616E
:100AA0002970864232BF801B064600206861AA7A00
:100AB00020684AB9AA882969B3B200F053FA00F055
:100AC0003CF8A0F804641DE030F8211049062969BB
:100AD0004CBF2A89EA88B3B200F044FA687848F635
:100AE0008F7130B900F01CF841F4004141F0C001B1
:100AF00007E0012806D100F013F841F4404141F02D
:100B0000800101802068297800EB810048F6BF72DF
:100B10000188114081F0300100F009F8002070BD1B
:100B20002878226802EB800002881140704741F467
:100B3000004141F08001018070472068B0F85010FA
:100B40002A78D20012FA81F100EB4100704710B50B
:100B500090F87023012A01D1022010BD012280F8F3
:100B600070231C230C060A4606D502F07F0213FBF5
:100B7000020202F1280303E013FB020202F5E6730E
:100B800001229A7001F07F021A70C909597048F267
:100B90008001046852B922884BF6BF731A4082F470
:100BA000805282F010021143218012E05B7804EB46
:100BB0008202002B138805D048F6BF74234083F0CF
:100BC000100304E04BF68F74234083F480531943E1
:100BD000118000F056F810BD70B51C230C060A46B3
:100BE00005D502F07F0213FB0202283203E013FB5B
:100BF000020202F5E6720023937001F07F03137086
:100C0000C909517090F87013012901D1022070BDFB
:100C1000012180F8701348F68F75567803681178B3
:100C2000002E03EB810448F2800126880FD076065F
:100C300006D52688354045F4004545F0C005258099
:100C400048F6BF7400F017F883F030030EE0760426
:100C500006D52688354045F4404545F08005258079
:100C60004BF68F7400F007F883F44053194311805A
:100C700000F007F870BD127803EB8202138823405E
:100C80007047002180F87013002070470068944975
:100C9000884200D0704700B587B04FF4C050019033
:100CA00001A90220029000200390032004900E204E
:100CB00005904FF0904000F0B7F98A48016841F480
:100CC000000101600022006800F400000090002193
:100CD0000098142000F094FA142000F0AEFA07B047
:100CE00000BD00F55D71D0F8A40300F010BB1C221C
:100CF00012FB0102D0F8A403D2F8DC2100F032BBD1
:100D00001C2212FB0102D0F8A403926B00F05CBB22
:100D1000D0F8A40300F0D6BB10B504460121D4F8E6
:100D2000A40300F0C0FBD4F8A403BDE8104000F019
:100D300099BB10B50446D4F8A40300F0B7FBA06932
:100D400020B16948016841F00601016010BDD0F88A
:100D5000A40300F0B1BB10B5044664486049C0F874
:100D6000A443C4F82002016008214160022181608F
:100D70000021C16002210161002181610162FFF750
:100D800003FA28B14FF4A0710FF26C1000F017FDB8
:100D9000D4F8200218230022002100F0C9F8D4F86A
:100DA000200258230022802100F0C2F8D4F820024B
:100DB000C0230022812100F0BBF8D4F820024FF4B8
:100DC00088730022012100F0B3F8D4F820024FF418
:100DD00080730022822100F0ABF8002010BD10B516
:100DE000D0F82002FFF71AFA002418B102280CBF2D
:100DF00001240224204610BD38B51C461346D0F805
:100E000020022246FFF7FAFB002518B102280CBF8A
:100E100001250225284632BD10B5D0F82002FFF783
:100E200032FD002418B102280CBF01240224204600
:100E300010BD10B5D0F82002FFF789FE002418B1CC
:100E400002280CBF01240224204610BD10B5D0F8A2
:100E50002002FFF7C1FE002418B102280CBF0124B4
:100E60000224204610BDD0F8200201F07F021C238E
:100E700013FB020009064CBF90F82A0090F8CE013F
:100E8000704710B5D0F82002FFF7A1FB002418B17D
:100E900002280CBF01240224204610BD10B5D0F852
:100EA0002002FFF7EAFD002418B102280CBF01243C
:100EB0000224204610BD10B5D0F82002FFF793FDA4
:100EC000002418B102280CBF01240224204610BDC2
:100ED000D0F82002FFF7C8BD0548704700000000A9
:100EE000005C00401C10024010ED00E0A049002012
:100EF0006C4F002070477047453A5C53544D333275
:100F00005C4149525C72733438355F61646170745E
:100F100065725F656D756C5C656D756C5C53726355
:100F20005C757362645F636F6E662E630000000021
:100F300030B51C240D0605D501F07F0114FB01001E
:100F4000283003E004FB010000F5E6701AB9002127
:100F50008172838004E001218172C380190C0181B8
:100F6000002030BD10B500EB42005A1C00F5806037
:100F7000520807E00B784C7843EA0423891C20F8D8
:100F8000043B521EF6D110BD10B500EB420000F537
:100F900080605A0807E030F8044B01F8014B240A3E
:100FA00001F8014B521EF6D1DA0744BF00880870E1
:100FB00010BDF0B4016844688368091801EB54025D
:100FC000E40748BF4B440C3091422BD011F8014B41
:100FD00014F0030504BF11F8015BED1C26090F2E68
:100FE00007D111F8016B0F3603E011F8017B03F80C
:100FF000017B6D1EF9D1002EE6D0A40811F8015B2B
:1010000004F00304032C08BF11F8014B05EB042482
:101010001C1BB51CD8D014F8016B03F8016B6D1EB6
:10102000F9D1D1E7F0BC70472DE9F8470026604AB6
:10103000604BDFF884814FF00F092EE0BD402C4358
:1010400043F82C406FEA0A05146805EA040E4C6860
:10105000E40348BF4AEA0E0EC2F800E0546805EA0D
:10106000040E4C68A40348BF4AEA0E0EC2F804E01E
:10107000946805EA040E4C68E40248BF4AEA0E0E82
:10108000C2F808E0D76805EA070C4D68AD0248BF12
:101090004AEA0C0CC2F80CC0761C0D6835FA06F74B
:1010A00000F07E80012707FA06FC1CEA050AF3D04F
:1010B0004C68022C18BF122C10D1F40800EB840EDF
:1010C00006F00704DEF82050A40009FA04F7BD4337
:1010D0000F6907FA04F42C43CEF820404FEA460E7D
:1010E000032405680F7904FA0EF4E44307F00307BC
:1010F000254007FA0EF73D4305604D68012D18BFE6
:10110000022D03D0112D18BF122D0FD18568CF6885
:10111000254007FA0EF73D438560456825EA0C0730
:101120004D68C5F30015B5403D434560C568254091
:101130008C6804FA0EF73D43C5604D68ED00ABD5F1
:10114000D8F8004044F00104C8F800404FEA960C7B
:10115000D8F8004004F00104009406F00305009C58
:1011600053F82C40AF0009FA07F5AC43B0F1904FAB
:1011700008BF002513D0114DA84208BF01250ED08D
:101180000F4DA84208BF022509D00E4DA84208BF46
:10119000032504D00C4DA8420CBF042505254DE7BE
:1011A000BDE8F187002A14BF8161816270470000A9
:1011B00000040140080001401810024000040048EB
:1011C00000080048000C00480010004809010028F1
:1011D00006D52E4A00F00F00801800F8041C704756
:1011E0002B4A815470472B490A684FF6FF031A4077
:1011F00000F0070042EA0020274A104308607047C9
:1012000038B5244B1B68C3F30223C3F10704052C34
:1012100028BF04241D1D072D34BF0023DB1E01251C
:1012200005FA04F4641E2140994005FA03F35B1E9D
:101230001A401143BDE83440C8E7012100F01F0205
:101240009140164AFFE7400942F82010704710B558
:10125000401EB0F1807F01D3012010BD104C6060B2
:101260000F214FF0FF30FFF7B1FF0020A0600720F3
:101270002060002010BD0A49042808680CBF40F017
:10128000040020F0040008607047000018ED00E042
:1012900000E400E00CED00E00000FA0500E100E0F1
:1012A00010E000E080B500F001F801BD704710B516
:1012B00008B9022010BD00F5FE739C690CB1002432
:1012C0009C6101B15961012119700270FFF743FD62
:1012D000002010BD0022002914BFC0F81412022201
:1012E0001046704780B5FFF77AFD002002BD10B5AB
:1012F000D0F8142202241AB11268904700B90024D1
:10130000204610BD80B5D0F814225268E7E038B509
:10131000044604F50275284600F0EAFB04F5FA706D
:1013200001210160418B4160007D10F01F0103D05D
:1013300002290BD005D30EE02946204600F040FAE2
:101340000EE02946204600F0D9FA09E02946204659
:1013500000F0EDFA04E000F080012046FFF769FD9F
:10136000002032BD38B50446104604F5FA7301BBBF
:101370001A68032A04F5827124D18D68CA68AA42CA
:101380000AD2AB1A8B60934238BF1A46014692B21A
:10139000204600F008FC15E0186A0169080004D036
:1013A000187A032804BF20468847204600F003FC33
:1013B00008E0186A8269100004D0187A032804BF74
:1013C00020469047002032BD38B50546002910461A
:1013D00005F5FA743BD12268022A05F1140130D1D7
:1013E0008A68CB68934207D2D21A8A60014692B2C9
:1013F000284600F0C7FB11E04868B0FBF3F103FB9F
:10140000110191B9984210D3616888420DD200222F
:101410000021284600F0B6FB002060600023002277
:1014200000212846FFF747FD0BE0206AC16808004D
:1014300004D0207A032804BF28468847284600F0B5
:10144000C1FB207B01280BD10020207308E0206A1B
:101450004269100004D0207A032804BF2846904730
:10146000002032BD10B50446402300220021FFF7C2
:10147000C3FC4020C4F810014023002280212046F4
:10148000FFF7BAFC201D4021C16104F5FE72012165
:101490001170D16929B1926901685268C9B22046B8
:1014A0009047002010BD01740020704700F5FE70C9
:1014B00001784170042102E000F5FE70417801706E
:1014C0000020704780B500F5FE710A78032A04D128
:1014D0008969C9690A0018BF8847002002BD904782
:1014E000002002BD30B587B000F074FB00F089F831
:1014F0008B488C4C016841F4001101604FF608756F
:10150000016801F40011009100220099016841F482
:1015100000210160016801F4002100910099016837
:1015200041F480010160016801F48001009100999B
:10153000016841F400310160016801F4003100915B
:101540000099016841F4802101602946006800F497
:101550008020009000982046FFF724FE372001905D
:1015600001A971480290002003902046FFF75CFD1E
:1015700001200290019500200390049001A92046CB
:10158000FFF752FD0120019001A900200290039075
:101590004FF09040FFF748FD00F07FF86348644942
:1015A00001604FF482714160002181604FF440710D
:1015B000C1600021016141614FF400718161082126
:1015C000C16100210162416281620721C162002183
:1015D00001630821416300F039FB00B1FEE700F030
:1015E00091FB00F079F800F091F800F0BBF8514859
:1015F00000F0B1FB504800F0AEFB504800F0ABFBF0
:10160000FEE700B59FB0032005904FF4A0200690A0
:10161000002007900120099010200A9002200C90D1
:101620004FF480300D904FF480100E9005A800F01C
:1016300067FD00B1FEE70F2000900121022001901C
:10164000002002904FF480600390002004906846D0
:1016500000F0C0FE00B1FEE739480F900020169060
:101660004FF480001D9000201B900FA800F072FF27
:1016700000B1FEE700F046FF4FF47A71B0FBF1F0E5
:10168000FFF7E5FD0420FFF7F6FD002200214FF0F3
:10169000FF30FFF7B5FD1FB000BD10B5294C2A483B
:1016A00020602A4860600020A060012000F028F837
:1016B000E0612062204601F029F800B1FEE7002138
:1016C000204601F07FF800B1FEE70021204601F03E
:1016D0008DF800B1FEE710BD10B5164C1C4888B05F
:1016E00000F038F842F6DF6000F00AF8204600F01B
:1016F00025FB00F05BF800B1FEE7009001904CE0A4
:10170000E060002020616061A061704710B50A4C64
:1017100088B04FF0804000F01DF847F22F5030E0C5
:101720001410024000100048000012108C530020DA
:10173000003001403C5400207C540020BC54002068
:1017400020100200F0530020005400400E09002039
:10175000002C0140206040F2E73060600020A06073
:101760007047000010B5014C014803E0BC54002054
:101770000004004088B02060632060600020A0600A
:101780006320E06000202061A061204600F0D6FACE
:1017900000F00CF800B1FEE7009002906946204688
:1017A00001F04EF800B1FEE708B010BD00B1FEE751
:1017B0004FF48050039003A9204600F09CBBFEE745
:1017C0002DE9F0410D4680466878092808F10406A5
:1017D00008F5FE7747D8DFE800F0687C46784609D0
:1017E00005465723404600F009F982E0A888002802
:1017F00004BFE888002836D1A87800F07F06387842
:10180000032830D0BE7031464046FFF73AFB4046D1
:1018100000F0D1F9002E14BF02200120387068E0DA
:10182000354C68882070207802281CDA3978022923
:101830001ED0032917D140B90220387000210020A2
:1018400030604046FFF75EFD50E0316888424DD081
:10185000C9B24046FFF756FD217831604046FFF798
:1018600046FD022842D12946404600F055F940E0A5
:1018700000283BD030600321397001464046FFF715
:1018800036FD0228EFD031E0E8880128EBD1387826
:10189000022804D00328E6D10122314611E00020BD
:1018A0007060012208F108010BE03878801E0128E1
:1018B000D9D8B968012001B10320B060022208F133
:1018C0000C01404600F055F913E06888012810D15A
:1018D00007E03878801E0128C5D86888012808D11B
:1018E0000020BA69B860404692689047404600F0D0
:1018F00062F90020BDE8F081FD54002038B50446AF
:1019000004F5FE720D46107803280CD128790228C0
:1019100009DA9269926820469047E88828B92046FB
:1019200000F049F901E000F0E1F8002032BD70B5A7
:101930000D4604462878297900F06000202804F537
:10194000FE7602D100F054F850E06A7801F07F0092
:1019500052B3012A13D0032A48D13078022802D08A
:10196000032803D040E0002940D00FE0688828B960
:1019700000291EBF80292046FFF75BFA0EE032786F
:10198000022A02D0032A03D02EE079B3802912E084
:101990006A885ABB20B12046FFF758FA00F028F8B1
:1019A000204600F008F921E03278022A02D0032A0A
:1019B00006D019E0002819D02046FFF73AFA15E0C2
:1019C00004EB00100A064CBF00F1140500F5827507
:1019D0002046FFF748FA00B101202860022229467C
:1019E000204600F0C6F801E000F07FF8002070BD4E
:1019F000B2699268294620461047000038B50D4666
:101A000004466988080A012804F5047208D00228EF
:101A100020D003282BD0062855D007285AD061E0C3
:101A20001268207C126869469047BDF800100029B2
:101A30001CBFE98800290CD0BDF800208A4288BF6D
:101A40000A46ADF800200146BDF80020204600F00F
:101A500090F831BD207C51680028684604D1896A1D
:101A6000884702214170E0E7C96A8847F9E7C9B2AF
:101A7000052937D8DFE801F003090F151B2112688B
:101A8000207C526869469047CFE71268207C9268B4
:101A900069469047C9E71268207CD268694690473A
:101AA000C3E71268207C126969469047BDE7126857
:101AB000207C526969469047B7E71268207C92699A
:101AC00069469047B1E7207C60B95168496B684628
:101AD0008847AAE7207C28B95168096B684688477F
:101AE0000721BFE700F001F831BD2946204613E089
:101AF0000A7802704A784270CB788A7802EB032227
:101B000042804B790A7902EB032282808A79C97973
:101B100002EB0121C180704710B504468021FFF718
:101B200088F92046BDE810400021FFF782B900B9CE
:101B3000704730B50346002400E0641C13F8015BD5
:101B4000002DFAD12406E30D9B1C138012880A7025
:101B500003224A70022208E010F8013BD2B253542B
:101B6000521CD2B200235354521C0378002BF3D1E1
:101B700030BD80B50223C0F8F43100F118031A60BB
:101B80005A6000E080B513460A460021FFF786F947
:101B9000002002BD80B50323C0F8F43100F5847342
:101BA0001A605A6000E080B513460A460021FFF72C
:101BB00082F9002002BD80B50421C0F8F411002391
:101BC0000022E2E780B50521C0F8F41100230022CD
:101BD000ECE7000080B51A48016841F0100101608F
:101BE0000320FFF700FB002000F004F800F056FE91
:101BF000002002BD38B5134D297804464FF47A70A1
:101C0000B0FBF1F010490968B1FBF0F0FFF71FFBE2
:101C100050B9102C08D2002221464FF0FF30FFF7B8
:101C2000EFFAAC60002032BD012032BD05484168AA
:101C3000027851FA82F1416070470248406870476B
:101C400000200240400000207000002038B5040051
:101C500001D1012032BD0020A06204F15C0568784A
:101C600018B92870204600F07DFE0220687040F20E
:101C7000017200F041F8E168914204D30020B1F50F
:101C8000706F05D106E0B1F5E06F4FF4805001D0E0
:101C90000023A362236B23B991422CBF02210121AF
:101CA00021636168A268114322691143626911438B
:101CB000A26902F400721143E2691143226A1143DE
:101CC000A26A114322681160A169626A090C01F0DD
:101CD00004011143626B1143E26811430843216818
:101CE00048602068C16921F40061C161002068601A
:101CF00001206870002032BD2068016821F0400199
:101D00000160704710B5094C094900222046FFF7D1
:101D1000CEFA08492046FFF7DDFA0749204600F0D1
:101D20006BFF2046BDE81040FFF7DCBA484D0020AD
:101D300094010020800000208401002038B50400B8
:101D400001D1012032BD00F01BF818B928702046DF
:101D500000F02AFE0AE00068C16841F00101C1609C
:101D6000016841F0010101600020704702206870A5
:101D7000211D206800F033F901206870002032BD79
:101D800004F13C056878704710B504462068016985
:101D9000890716D5C168890713D56FF00201016163
:101DA00001212177806910F0030F204602D000F056
:101DB00013F904E000F00FF9204600F00EF90020BE
:101DC000207720680169490716D5C168490713D5EE
:101DD0006FF00401016102212177806910F4407FD6
:101DE000204602D000F0F8F804E000F0F4F82046B5
:101DF00000F0F3F80020207720680169090716D564
:101E0000C168090713D56FF008010161042121772A
:101E1000C06910F0030F204602D000F0DDF804E0A6
:101E200000F0D9F8204600F0D8F80020207720688C
:101E30000169C90616D5C168C90613D56FF010012E
:101E4000016108212177C06910F4407F204602D04B
:101E500000F0C2F804E000F0BEF8204600F0BDF843
:101E60000020207720680169C90708D5C168C90723
:101E700005D56FF001010161204600F0ABF8206844
:101E80000169090608D5C168090605D56FF080010A
:101E90000161204600F0FBFC20680169C90508D5F6
:101EA000C168090605D56FF480710161204600F014
:101EB000EFFC20680169490608D5C168490605D5C7
:101EC0006FF040010161204600F088F82068016948
:101ED00089060AD5C168890607D56FF0200101611E
:101EE0002046BDE8104000F0D1BC10BD012020709C
:101EF00002206070704738B500F061F801D102200F
:101F000032BDFFF7F3FFDFF86831286882681A40B6
:101F10008260086800283AD010283AD020283AD0A9
:101F200030283AD040282ED0502821D0602823D005
:101F300070280BD0B0F5805F03D0B0F5005F0FD0F4
:101F40002FE02868184A816811400FE000F032F84D
:101F50002868DFF820218168114041F0770105E011
:101F600000F028F82868816841F48041816018E019
:101F700000F01CF8502111E0CA684968286800F098
:101F80009AF860210AE000F011F8402106E00021F3
:101F900004E0102102E0202100E03021286800F058
:101FA0009CF812E000000000F8FFFEFFCA684968D4
:101FB00028686FE0CB684A688968286895E005461C
:101FC00005F13C0420780128704701206070002052
:101FD000207032BD704770477047704770472DE9D9
:101FE000F0410768DFF89080244A254B254C264DA8
:101FF000DFF898C0DFF898E0404518BFB0F1804F97
:1020000004D070451CBF6045A8420CD14E6827F033
:1020100070073743404518BFB0F1804F0BD0704573
:1020200018BF604507D0A84218BFA04203D098420D
:1020300018BF904203D1CE6827F4407737434E69EA
:1020400027F080073743076040458F68C7620F68F5
:10205000876218BFA84204D0A0421CBF9842904299
:1020600001D10969016301214161BDE8F0810000EE
:102070008800FEFF88FFFEFF002C01400048014061
:10208000004401400040014000340140000800408D
:102090000004004010B5036A046A64086400046226
:1020A000846924F0F00444EA0212826123F00A02F7
:1020B0001143016210BD10B5036A23F010030362DF
:1020C0008369046A23F4704343EA0232826124F094
:1020D000A00242EA0111016210BD826822F0700282
:1020E000114341F007018160704710B5846824F402
:1020F0007F442143114341EA0321816010BD000068
:102100002DE9F843040019D02078DFF80054C00707
:1021100051D5686800F00C00042807D0686800F00A
:102120000C0008280CD16868C00309D52868C0F3E2
:10213000404000283FD0606800283CD101203EE1AB
:102140006068B0F5803F09D008B928680AE0B0F5AA
:10215000A02F286806D140F480202860286840F429
:10216000803005E020F480302860286820F480204A
:102170002860E86AA168000941EA0010E862606826
:1021800060B1FFF75AFD07462868C0F3404090B998
:10219000FFF753FDC01B6528F6D30DE1FFF74DFD9A
:1021A00007462868C0F3404028B1FFF746FDC01B32
:1021B0006528F6D300E12078DFF85C63800718D546
:1021C000686810F00C0F07D0686800F00C00082851
:1021D00025D16868C00322D400F0F3F81CBF206941
:1021E0000128ABD12868616920F0F80040EAC100FD
:1021F0002860207800073DD5A169DFF8200359B396
:1022000001210160FFF719FD0746686AC0F340002D
:1022100080BBFFF712FDC01B0328F6D3CCE020697A
:1022200068B101203060FFF708FD074600F0C9F8EB
:10223000D8D1FFF702FDC01B0328F7D3BCE0306004
:10224000FFF7FBFC074600F0BCF8D2D0FFF7F5FC27
:10225000C01B0328F7D3AFE00160FFF7EEFC074691
:10226000686AC0F3400028B1FFF7E7FCC01B0328F1
:10227000F6D3A1E02078400764D5E869C0004FF0AC
:1022800000080AD4E86940F08050E8614FF0010886
:10229000E86900F0805000900098DFF88492D9F847
:1022A0000000C00512D4D9F8000040F48070C9F8CD
:1022B0000000FFF7C2FC0746D9F80000C00505D4AE
:1022C000FFF7BBFCC01B6528F6D375E0E06801286A
:1022D00008D008B9286A09E00528286A06D140F024
:1022E00004002862286A40F0010005E04008400030
:1022F0002862286A20F00400286241F28939E068E7
:1023000060B1FFF79AFC0746286AC0F3400090B915
:10231000FFF793FCC01B4845F6D34DE0FFF78DFC5B
:102320000746286AC0F3400028B1FFF786FCC01BAF
:102330004845F6D340E0B8F1000F03D0E86920F03B
:102340008050E861E069002838D0696801F00C012C
:1023500008293FF4F3AE022822D100F037F80746EF
:102360002868C0F3406028B1FFF767FCC01B032852
:10237000F6D321E06868616A20F474100843216A8A
:1023800008436860012000F022F807462868C0F37F
:10239000406098B9FFF751FCC01B0328F6D30BE04F
:1023A00000F014F807462868C0F3406030B1FFF72A
:1023B00044FCC01B0328F6D3032000E00020BDE846
:1023C000F2832868C0F34000002870470020306680
:1023D000FFF733BC2DE9F0410400884646D0514E4A
:1023E000306800F00700404502D200F064F83DD1AB
:1023F0002078464F800705D57868A16820F0F00066
:10240000084378602078C00728D56068012803D188
:102410003968C1F3404104E00228396803D1C1F3AF
:10242000406119B922E0C1F34001F9B17968890826
:1024300040EA81007860FFF700FC05467868616833
:1024400000F00C00B0EB810F08D0FFF7F6FB401B4B
:1024500041F289318842F1D303202AE0306800F04C
:102460000700804504D200F026F801D0012020E0CA
:102470002078400705D57868E16820F4E0600843DB
:1024800078602078000706D57868216920F46050CC
:1024900040EAC100786000F018F87A682249C2F377
:1024A0000312515CC8401A4908600020FFF7A2FBE4
:1024B0000020BDE8F0813068C00848EAC000306004
:1024C000306800F00700404570471848016801F087
:1024D0000C02082A14D10FF25C02C1F38343C90332
:1024E0009A5C806A09D50FF25C030A4900F00F007C
:1024F000C05CB1FBF0F0504370470D48504370474B
:10250000044870470248006870470000001002400D
:102510007000002000127A00000042428004424213
:102520000070004000200240983E00080410024065
:1025300000093D0002030405060708090A0B0C0DFB
:102540000E0F10100102030405060708090A0B0C00
:102550000D0E0F102DE9F041044682B02068DFF81F
:10256000A051C00353D5A8690026C00009D4A869AA
:1025700040F08050A8610126A86900F080500090CA
:102580000098DFF880713868C00510D4386840F4CE
:1025900080703860FFF751FB80463868C00506D46C
:1025A000FFF74BFBA0EB08006528F6D322E0E869B3
:1025B00010F440701EBF616801F4407188421BD066
:1025C000DFF84411E86901220A6020F4407000221B
:1025D0000A60E861C0070FD5FFF72FFB0746E869DF
:1025E000C0F3400040B9FFF728FBC01B41F289311E
:1025F0008842F4D3032080E0E869616820F44070E9
:102600000843E8611EB1A86920F08050A8612078D5
:10261000C00705D5E86AA168800841EA8000E86241
:102620002078800705D5E86AE16820F44030084347
:10263000E8622078400705D5E86A216920F4402047
:102640000843E8622078800605D5E86AE16920F051
:1026500010000843E8622068800305D52868A16B54
:1026600020F48000084328602078400605D5E86AF9
:10267000216A20F020000843E8622078000705D591
:10268000E86A616920F440100843E8622078C006D7
:1026900005D5E86AA16920F440000843E862206893
:1026A000800505D52868E16A20F400000843286009
:1026B0002078000605D5A86A616A20F4F8700843FE
:1026C000A8622068C00505D5A86AA16A20F47850E0
:1026D0000843A8622068C00405D5E86A216B20F48D
:1026E00080700843E8622068800405D5E86A616B61
:1026F00020F400700843E8620020BDE8F681000085
:1027000004100240007000404004424238B504000A
:1027100001D1012032BD04F14005687818B9287054
:10272000204600F0FEF800F040F86068216820F0D4
:10273000706008612068816821F400418160E06870
:102740000128A0680CBF40F4004040F40440216818
:102750008860E068022803D121684FF40060486077
:102760002068416841F0007141F4004141602068F7
:10277000C16821F40041C160206961690843A16911
:1027800040EA01202168C860E069216A08432168A5
:1027900008602068016841F0010101600020686064
:1027A00000F00BF82063A87032BD24206870206808
:1027B00001684908490001607047202068700020C6
:1027C0007047000010B500F140025378202B0BD168
:1027D0001378012B08D000F01BF824F480541C60FF
:1027E00003681C6821431FE0022010BD10B500F1F2
:1027F00040025378202B09D11378012B06D000F02A
:1028000007F824F4706444EA01210DE0022010BDB1
:10281000012313702423537003681C686408640048
:102820001C6003681C68704719600068016841F00B
:1028300001010160202050700020107010BD0000C8
:1028400030B590F83C20012A01D1022030BD012290
:1028500080F83C200F4D026853689468AA421CBF60
:102860000D4DAA4203D14D6823F470032B438D68AC
:10287000096823F0700324F0800419432C4351604D
:102880009460002180F83C10002030BD70477047F4
:1028900070470000002C01400034014080B56248C0
:1028A000016841F001010160016801F0010100913E
:1028B0000099416841F080514160406800F08050CB
:1028C000009000980720FEF78EFC002200216FF098
:1028D0000B00FEF795FC002200216FF00A00FEF7C6
:1028E0008FFC002200216FF00900FEF789FC002216
:1028F00000216FF00400FEF783FC002200216FF03E
:102900000300FEF77DFC002200216FF00100FEF7BE
:1029100077FCBDE80840002200214FF0FF30FEF7B1
:102920006FBC00684149884200D0704700B587B04D
:10293000C020019001A912200290012003900320E1
:102940000490042005903A48FEF76EFB3948016870
:1029500041F400110160006800F40010009000983C
:1029600007B000BD00683449884200D0704700B508
:102970002D4887B0016841F48051016001A90068C9
:1029800000F4805000900098E02001900220029016
:102990000020039003200490052005904FF0904004
:1029A000FEF742FB07B000BD80B50068234A1E4910
:1029B00090420FD1086840F4006008600022086867
:1029C00000F400600090002100981920FEF718FC28
:1029D000192024E0B0F1804F0FD1486840F0010089
:1029E00048600022486800F0010000900021009833
:1029F0001C20FEF705FC1C2011E0114A904212D168
:102A0000486840F0020048600022486800F0020078
:102A10000090002100981D20FEF7F2FB1D20BDE86C
:102A20000240FEF70ABC01BD1810024000540040ED
:102A3000000400481C10024000300140002C0140FE
:102A40000004004070B505460024287C30B94FF4DE
:102A5000007300F031F84FF4007303E0402300F0FE
:102A60002BF84023022201212846FEF7C5F908234E
:102A7000032282212846FEF7BFF94FF40770FEF7C4
:102A80002BFA060005F50670066008BF012411D078
:102A900040680068804706F501700461446102687F
:102AA000287C00280CBF4FF40073402301212846E6
:102AB000FEF701FA204670BD022281212846FEF76A
:102AC0009BB910B504468121FEF7A6F901212046E5
:102AD000FEF7A2F982212046FEF79EF904F506745E
:102AE000206838B16068406880472068FEF702FAC5
:102AF00000202060002010BD70B50D46044604F58E
:102B0000067329781E6811F060001ED0202824D199
:102B1000EA88A2B16878090606D55B689B683146E9
:102B20009847EA88314615E006F500710870E88894
:102B300048703146EA882046FFF72CF80DE05B68C4
:102B400068789B682946984707E068780A2804D186
:102B5000012224492046FFF70CF8002070BDD0F870
:102B6000180200281DBF0021C0F814120020022006
:102B7000704770B500F50674256805F50176FEF717
:102B8000A7F9B060206838B162683068D26805F58E
:102B900003719047002070BD022070BD10B500F594
:102BA000067043680168002B1EBF01F50074207891
:102BB000FF2804D062789B689847FF20207000208F
:102BC00010BD432101800848704743210180074818
:102BD000704743210180064870470A21018005485B
:102BE00070470000FC540020FC000020B8000020CA
:102BF0004001002074000020022211B1C0F81C1214
:102C0000002210467047D0F8180200F502700160EB
:102C1000826000207047D0F81802C0F8041200202B
:102C2000704780B5D0F8181279B101F50271CA6801
:102C30004AB90122CA608B680A689BB28121FEF7FB
:102C40002DF9002002BD012002BD022002BD80B589
:102C5000D0F8181261B1D1F80422017C00290CBF10
:102C60004FF4007340230121FEF725F9002002BD37
:102C7000022002BD7047FEE7FEE7FEE7FEE7704771
:102C80007047704780B5FEF7D1FFBDE80140FEF701
:102C900009BBB448FDF732BC2DE9F041B24E98B003
:102CA000717B307B012908D1D6E90423C6E90623CC
:102CB000401CC0B2FF2808BF00203073AB48FFF7AC
:102CC00063F800F0C9F8707B411E032912D8DFE8D1
:102CD00001F00205080B00F0B8F80BE0A449A54A82
:102CE00004E0A549A54A01E0A549A64A009103A927
:102CF00038CA38C1401CC0B2052808BF0120707313
:102D000000F0B0F800F098F803A906F1280000F0F0
:102D1000D5F88DED010AD6E9064500F07FF800F000
:102D200068F8307B8DF837001F210020C8F81800A4
:102D300000F069F8D7F8140218B9202108A800F0AB
:102D40004BF953E02DE9F041874E98B0F17BB07B11
:102D5000012908D1D6E90423C6E90823401CC0B2E2
:102D6000FF2808BF0020B0738748FFF70DF800F078
:102D700073F8F07B411E032912D8DFE801F0020549
:102D8000080B00F062F80BE079497A4A04E07A49CE
:102D90007A4A01E07A497B4A009103A938CA38C1CE
:102DA000401CC0B2052808BF0120F07300F05AF89B
:102DB00000F042F803A906F1340000F07FF88DED31
:102DC000010AD6E9084500F029F800F012F8B07BB6
:102DD0008DF837001F2100200E9000F014F8D7F86E
:102DE000140218B9202108A800F0F6F818B0BDE8C0
:102DF000F08120186941CDE90601082206A90DF1EC
:102E00002F0000F001B9ADF83C0043208DF83E00E2
:102E1000522088F81F0010A800F032B99DED010A79
:102E2000DFED4E0A20EE200ADFED4D0A80EE200A8B
:102E300010EE100A00F028B900208DF82A000422B4
:102E400002A90DF12B0000F0DFB85049009103A951
:102E50001CCE1CC10C3E70474D48D0F818724D482E
:102E6000029070470DF120083A208DF820000422CE
:102E7000442088F8010069460020ADF82200A8F837
:102E800004000DF1260000F0BFB838B536484FF009
:102E9000FF35D0E90423521C43F10003AB426FF02D
:102EA000010404D301D8A24201D300220023C0E9C7
:102EB0000423BDE832403848FEF766BF38B5044603
:102EC0000D462DED068B20682968401A00EE100A89
:102ED000F0EE000AB8EEC00A00F07BFA606869689C
:102EE000B0EE408A00F031F841EC190BA068A968F7
:102EF00000F02BF841EC1A0B18EE100A00F06CFAF7
:102F000004460D4653EC192B51EC190B00F08CFACA
:102F100022462B4600F05AFB04460D4653EC1A2B72
:102F200051EC1A0B00F080FA22462B4600F04EFBC3
:102F300041EC100B00F0BEFB51EC100B00F03AFC22
:102F4000BDEC068B00EE100A31BD401A00EE100AEF
:102F5000B8EEC00A10EE100A00F03EBA286B6E4EB2
:102F6000F6E88E4DA0490020000000203C540020CF
:102F7000020018804C000020030018805800002038
:102F800004001880640000207C5400200100188098
:102F9000484D002001000020BC54002038B5184CDA
:102FA000184D002205F57A712046FFF72CFE2946C0
:102FB0002046FFF730FE002032BD00207047002081
:102FC000704710B50E4C01462046FFF724FE204600
:102FD000FFF73DFE002010BD10B5094CD4F81822B3
:102FE000D2F814220AB1012010BD0A46014620463B
:102FF000FFF709FE2046BDE81040FFF712BE0000B3
:10300000484D0020D041002062B38B0708D0521EEB
:1030100011F8013B00F8013B00F024808B07F6D14A
:10302000830740F0208000BF103A07D330B4B1E8E6
:103030003810103AA0E83810F9D230BC530724BF3A
:10304000B1E80810A0E8081044BF51F8043B40F86C
:10305000043BD20724BF31F8022B20F8022B44BFD7
:103060000B7803707047083A07D3B1E80810083AA4
:1030700040F8043B40F804CBF7D25307E4E70000E4
:10308000002200F0DFBB000041001DD2090E7F3995
:103090001AD4202908DAC1F11F0C010241F00041C5
:1030A00021FA0CF000217047D1F13F0C08D4010245
:1030B00041F0004161FA0CF021FA0CF148407047F0
:1030C0006FF00000010070470020002170470000F1
:1030D000F8B52DED028B04462DED020A82B003985F
:1030E00001900298C0F3C750FF2806D1029800252E
:1030F00040020CBF0127022713E0012807DA02A8CB
:1031000000F0B9FB012802DB0025002709E0029945
:1031100021F0FF4141F07C510291A0F17E054FF07A
:10312000FF37002101A800F0B9FB06460CB10020D2
:103130002080002E02BF9DED030AB5EE400AF1EE9D
:1031400010FA16D0002F18D52DB2012D1AD19DEDF1
:10315000020AF6EE000AB4EE600AF1EE10FA08D0A8
:10316000012E0FD1FEEE000AB4EE600AF1EE10FA65
:1031700030D104B0B7EE000A28E1022F04D19DED52
:10318000020A22E1012E5CDB022E08BF9DED030A3C
:1031900000F01B81012F1BD102980028039802D454
:1031A00000284AD532E0002809D4002E45D14FF03E
:1031B000FF3101A800F072FB00283ED539E02EBB9C
:1031C0004FF0FF3101A800F069FB00281ED519E07F
:1031D000012E09D1039800282DB202D4012D2CDA3A
:1031E00014E0012D12DA28E00398002812D46EB9F9
:1031F0004FF0FF3101A800F051FB002844BF0298B6
:10320000002803D504B09FED600ADFE004B09FED15
:103210005F0ADBE000F06AFB222101606EB94FF02B
:10322000FF3101A800F03AFB002844BF02980028B3
:1032300003D504B09FED560AC8E004B09FED550ACF
:10324000C4E00298002848BF002E07D500F04EFBCE
:103250002121016004B09FED500AB7E09DED020A04
:10326000B5EE400AF1EE10FAC8BF002609DCB1EE57
:10327000400A8DED020A4FF0FF3101A800F00EFB6D
:1032800006469DED020ADFED450AB4EE600AF1EE56
:1032900010FA06D5F0EE000A20EE200A8DED020AA3
:1032A0006D1E9DED020AFFEE000A30EE200ADDEDF4
:1032B000020A8DED020AB7EE001A70EE810A80EE66
:1032C000208A68EE088AB0EE680A00F015FB28EE46
:1032D000800ADDED020A30EE600A20EE080A30EEC8
:1032E000800A2DB200EE905A9FED2D1AF8EEE00AFA
:1032F00080EE011A30EE811A8DED011A9DED031A50
:10330000DDED011A21EE211ADFED261AB4EE611A65
:10331000F1EE10FA8DED001A48D4DFED231AB4EE69
:10332000611AF1EE10FA43DAB5EE401AF1EE10FA36
:103330004CBFFEEE001AF6EE001A31EE211ADDED5A
:10334000031ABDEEC11A60EEA10AF8EEC11A70EEC2
:10335000E10ADFED131A60EEA10ADDED031A40EE7B
:10336000210ACDED000A24B111EE100A20809FED54
:10337000071A11EE101AB7EE000A684600F0D0FAEC
:10338000A0B1012814D01AE0000000800000000065
:10339000000080FF0000807FFFFFFF7FF304353FC8
:1033A0001872313F000000C701000047002001E013
:1033B0004FF0FF40009000F099FA22210160002EAA
:1033C0009DED000A18BFB1EE400A04B0BDEC028BBF
:1033D000F1BD00207CE600005FF0FF0C1CEAD0513C
:1033E00014BF614506E0C110400721F0E04101F142
:1033F0006051704779B900F0004100020AD0B0FA7C
:1034000080FC00FA0CF001F16051A1EB0C5101EBD2
:10341000D0214005704741020CBF40F4E0016FF03D
:103420000001002070470000B0B581EA030C0CF0E9
:10343000004C40F2FF7515EA11541DBF15EA1357F1
:10344000AC42AF4239E0E41923EA455343F4801318
:10345000C90241F0004141EA505EC7021100A7FBDA
:10346000020200284FF00000EEFB01204FF00001A7
:10347000E3FB072118BF42F0010240180021494137
:10348000E3FB0E01A4F580640F0302D25200404119
:10349000494154F101046CDD470872F1004250F1DA
:1034A000000051EB0451A1F580115CBF41EA0C0111
:1034B000B0BD4CEA05510020B0BD05EA1357AC423F
:1034C00014BFAF4241E050EA410E1CBF52EA430E26
:1034D00002E061460020B0BD24423C441BD15FEABB
:1034E000070EF6D0090302BF01460020AEF1140E0C
:1034F000B1FA81F7AEEB070401FA07FE0C37C7F10A
:10350000200100FA07F7C8404EEA000E23EA4553AF
:1035100043F48013A2E733F00043B3FA83F704BF08
:10352000B2FA82FE77440B3FE41BB7F1200E2FBFA7
:1035300002FA0EF3BB40C7F1200E22FA0EFE38BF8E
:1035400043EA0E03BA40641C82E750EA410E14BFFE
:1035500052EA430E6FF000014FF4001717EB430FD0
:103560008ABF194617EB410FB5E74CEA0551002019
:10357000B0BDD4F10104B4F120070FDAC4F1200783
:10358000520828BF42F0010210FA07F501FA07F7C6
:10359000E1BF2A43E0403843E1400FE0352C98DC9E
:1035A000C7F1200452EA400220FA07F218BF42F0A5
:1035B000010231FA07F0A1400A43002172F10042F2
:1035C00050F1000051EB0C01B0BD0000F0B44FF021
:1035D000004591EA030C44BF6B4000F0AFBA00BF56
:1035E000841A71EB030603D2001BB1411219734117
:1035F0004FF4001C1CEB410F34BF7CEB430443E051
:103600000C0DA4EB1356352E50DC45EAC323DB0A20
:1036100045EAC121C912B6F120050DDD63FA05F6B0
:10362000EB4086EA0305124218BF45F00105C018B9
:1036300051F100010CD213E062FA06F5F240554058
:10364000F3415A40B340F3405A408018594107D3E0
:1036500049085FEA30005FEA350528BF45F00105FB
:1036600001F58011420875F1004250F1000041EB74
:103670000451F0BC4FF4001C1CEB410F38BF7047E5
:103680000020090D090570471CEB410F10D252EACA
:1036900043060BD0BCEB410F05D80C0DAB43661EA7
:1036A000342EB5DD02E0AB4380185941F0BC7047C1
:1036B000F0BC704751EC100B10B500F003F841EC72
:1036C000100B10BD40F2FF7C0B0D4DD0634566D250
:1036D00030B421EA035141F4801103F2FD3C5FEA6A
:1036E0005C0C01D300184941890041EA90718000C7
:1036F0004FF440140023E202D50AB1F5100107D4BB
:103700006D081DD2091B641900184941491BF7D5E2
:103710006D080AD20919641B00184941491BEFD5ED
:103720006D08F7D301E0520817D0C01861419B1A09
:10373000AC4100184941801AA941F4D452080AD07A
:10374000C01AA1419B186C4100184941801AA94137
:10375000E9D45208F4D15B1C6C4161084FEA330094
:1037600001EB0C5130BC704750EA0103FBD030B480
:10377000B1FA81F311B9B0FA80F41B190B3BB3F124
:1037800020042FBF00FA04F19940C3F1200420FA6D
:1037900004F438BF21439840D3F101039DE763450A
:1037A000E1D011F5801FDED850EA4101DBD0D943CA
:1037B00000F07ABA4FEAF17CBCF1E04C2CBFBCF5CA
:1037C000001F11E05FEA4C0C34BFBCF17F5F2EE0BC
:1037D0005FEA9C0C4FEA0C1C4FEA3C0CC10071F1F3
:1037E00000414CEB50707047C90241EA5051C00291
:1037F00018BF41F0010141F000414FEA6C50C0F1A7
:103800000900212810D240EACC7CCCF1200C11FA1E
:103810000CF070F10040CCF1200C21FA0CF00CF00F
:10382000004C40EB0C0070474FEACC7070474900E9
:1038300011F5001F04D84FEACC10FF30C0057047C7
:10384000C817704700B500BF13009646944610395C
:1038500028BFA0E80C50FAD85FEA417C28BF0CC012
:1038600048BF40F8042BC90728BF20F8022B48BFE7
:1038700000F8012B00BD026802F000430121520252
:10388000520A02D106E05200491E5FEA022CFAD524
:103890005202520A1A430260084670470268C2F395
:1038A000C752FF2A05D1006840020CBF0120022048
:1038B000704703685B0016D0C2F19602521A012AC3
:1038C00011DB182A04DB016801F00041016007E008
:1038D000012191400268491E11404A40026011B125
:1038E0004FF0FF307047002070470000014800F0A3
:1038F000E1B90000C8010020DFED060A9FED061ABD
:1039000000EE201ADFED050A41EE000AB0EE600A73
:10391000704700001502993E11AECC3EC0AA2A3F66
:1039200010B5044682B0D4ED000ACDED000A00982F
:10393000C0F3C750FF280AD010B14FF0FF300BE0A2
:10394000009840020CBF00206FF0010004E00098D6
:10395000400214BF022001208DED000A009AC2F33C
:10396000C752FF2A0AD012B14FF0FF320BE0009A83
:1039700052020CBF00226FF0010204E0009A5202D2
:1039800014BF02220122030048BF002A43D40228A8
:1039900000F0BB80022A08BF84ED000A1BD03AB9B0
:1039A0009FED5A1AF4EE410AF1EE10FA0CD03DE008
:1039B000012A12D19FED561AF4EE410AF1EE10FAE7
:1039C00018BF84ED000A46D1FFF790FF2121016066
:1039D0006FF000402060022016BD70B984ED000A2F
:1039E000204600F069F9040018BF012C40F08C80DB
:1039F000FFF77CFF2221016086E09FED441AF4EE80
:103A0000410AF1EE10FA0DD1DFED400A20EE200A56
:103A100084ED000A1FE09FED3F1AF4EE410AF1EE3B
:103A200010FA07D5DFED3C0A20EE200A84ED000AEB
:103A3000002016BD9FED391AF4EE410AF1EE10FA9E
:103A40000BDBDFED320A20EE200A84ED000AFFF7DF
:103A50004DFF22210160012016BD9FED311A20EE9D
:103A6000811AB5EE401AF1EE10FA4CBFFEEE001AC4
:103A7000F6EE001A31EE211ABDEEC11A11EE100A4F
:103A8000B8EEC11ADFED271A41EE610ADFED261A02
:103A900041EE610A9FED251AF4EE410AF1EE10FAAB
:103AA00006DB9FED231AF4EE410AF1EE10FA1DD465
:103AB0009FED202AF6EE002A20EEA01ADFED1E1A56
:103AC00041EE022A61EE211A62EEA00A31EEA01A3E
:103AD00071EEE00AB7EE002AF7EE001A31EE021A94
:103AE00070EEA10AC1EE200A20EE800A091884EDCA
:103AF000000A204600F0E0F8040018BF012C03D1B2
:103B0000FFF7F4FE22210160204616BD0000807FF1
:103B1000000080FF000065C3000000000100654355
:103B20003BAAB83F0060313FBFBF9039000000B3EF
:103B3000010000331354083C9EBFCC3D841A71EB46
:103B4000030604D26E40001BB141121973414FF4B9
:103B5000001C1CEB410F34BF7CEB430684E00C0DD2
:103B6000A4EB1356362E7DDC012E43DC45EAC3233D
:103B700043EA525312BFD20292025B08240545EA7F
:103B8000C12141EA5051D2EBC020994125D407D13F
:103B9000B0FA80F610FA06F164D00020203608E072
:103BA000B1FA81F6B140C6F1200220FA02F21143C7
:103BB000B0404FEAF474B4EB465434F001064FEAD7
:103BC00074040AD8D6F50016760D04F00044F040CF
:103BD00061FA06F25040F1404840C00A40EA4150C4
:103BE00021F0004128BF5FEA500550F1000044EB8E
:103BF000D12137E045EAC323DB0A45EAC121C90ADE
:103C0000B6F120050EDD42EA0242120CC5F1200693
:103C100003FA06F6EB4042EA06056D42984161F16F
:103C200000010DE062FA06F5F240554063FA06FC29
:103C300082EA0C02F3405A406D42904161EB03016D
:103C400011F4801F05D1641E620502D06D00404151
:103C5000494121F48011430875F1004350F10000FF
:103C600041EB0451F0BC70471CEB410F15D223F01F
:103C7000004352EA43060BD04FEA4C0CBCEB410F19
:103C800004D80C0D661E342EB7DDEBE7801A99417F
:103C900050EA410608BF0021E4E708BF1CEB430FD0
:103CA00028BF6FF00001DDE71FB5FFF71FFE2121E0
:103CB00001601FBD7047000038B504460D462068FE
:103CC0004000000EFF2804D12068400216D00220D8
:103CD00032BD20B92046FFF7CEFD012848DA012D7C
:103CE0000EDBC0F1FF018D420AD3206800284CBFD3
:103CF0009FED200A9FED200A84ED000A012032BDCD
:103D00004142A942216806DA21F0FF41401941EA07
:103D1000C050206026E022685202401E520A451917
:103D200042F4000205F1180001F000412260182859
:103D300028BF21601CD200206A4206D02068C2F150
:103D4000200398402368D340236022680A43B0F1DF
:103D5000004F226003D808D12078C00705D520681D
:103D6000401C20604FF0FF3032BD20688842F9D1FE
:103D7000002032BD000080FF0000807F12200880FC
:103D800011487047042008801048704710B5104C47
:103D90000FF2400003E010B50D4C0FF250000A4640
:103DA0002146FDF7C4FE204610BD10B5084C0FF2A9
:103DB0005000F4E710B5064C0FF25400EFE710B5D1
:103DC000034C0FF25800EAE7B0010020C4010020C4
:103DD0008C51002053544D333220566972747561F2
:103DE0006C20436F6D506F727400000053544D6926
:103DF00063726F656C656374726F6E6963730000E4
:103E00003030303030303030303031410000000060
:103E100043444320436F6E66696700004344432078
:103E2000496E746572666163650000001448154A46
:103E3000016841F4700101601348016841F001011B
:103E40000160416811404160104A01681140016001
:103E50000F4A016821F480210160416821F4FE01CC
:103E60004160C16A09090901C162016B1140016326
:103E7000002181604FF00060064908607047000033
:103E800088ED00E00CC07FF800100240FFFFF6FE56
:103E9000CCFC00FF08ED00E0000000000000000086
:103EA000010203040607080919E050F8041BCB07B8
:103EB00044BFA9F101035918121F0023042A41F835
:103EC000043BF9D25FEA827C0B4604D54FF0000C2C
:103ED000A1F800C09B1CD10744BF0021197050F805
:103EE000042B002AE1D1704710B5074979441831F5
:103EF000064C7C44163404E00A68081D51188847B3
:103F00000146A142F8D110BD2C000000480000007D
:103F10004EF68851CEF20001086840F47000086047
:103F2000BFF34F8FBFF36F8F4FF00070E1EE100AB9
:103F30007047000075FFFFFF30130000D0410020E4
:103F4000000000006FD0FFFF64010000F4010000DA
:103F50000000002000F00BF8002801D0FFF7C4FF9C
:103F60000020C046C046FDF7BDFA00F002F801206F
:103F7000704700F001B800000746384600F002F82C
:103F8000FBE7000080B5C046C046024A1100182079
:103F9000ABBEFBE72600020001488047014800470E
:103FA0002D3E0008A93F0008C046C046FFF7B0FFFD
:103FB000FFF7D0FFFFF7FEBFFFF7FEBFFFF7FEBF23
:103FC000FFF7FEBFFFF7FEBFFFF7FEBFFFF7FEBF25
:103FD000FFF7FEBFFFF7FEBFFFF7FEBFFFF7FEBF15
:103FE000FFF7FEBFFFF7FEBFFFF7FEBFFFF7FEBF05
:103FF000FFF7FEBFFFF7FEBFFFF7FEBFFFF7FEBFF5
:10400000FFF7FEBFFFF7FEBFFFF7FEBFFFF7FEBFE4
:10401000FFF7FEBFFFF7FEBFFFF7FEBFFFF7FEBFD4
:10402000FFF7FEBFFFF7FEBFFFF7FEBFFFF7FEBFC4
:10403000FFF7FEBFFFF7FEBFFFF7FEBFFFF7FEBFB4
:10404000FFF7FEBFFFF7FEBFFFF7FEBFFFF7FEBFA4
:10405000FFF7FEBFFFF7FEBFFFF7FEBFFFF7FEBF94
:10406000FFF7FEBFFFF7FEBFFFF7FEBFFFF7FEBF84
:10407000FFF7FEBFFFF7FEBFFFF7FEBFFFF7FEBF74
:10408000FFF7FEBFFFF7FEBFFFF7FEBFFFF7FEBF64
:10409000FFF7FEBFFFF7FEBFFFF7FEBFFFF7FEBF54
:1040A000FFF7FEBFFFF7FEBFFFF7FEBF5200011292
:1040B0000309F003066401C8010001120A19521431
:1040C0001D120508120F045201042101521008218B
:1040D00024214CC319000C2101210C100600127A76
:1040E000000A0600020B22403C1003452A0008C3C8
:1040F0000412F904211F10039D2B00085F04437371
:104100002B10610112CB1012C30412D30412DB0472
:10411000100909024300020100C03209048512029D
:104120000B201D05240010010524010001042402B8
:104130000205240600010705820308001009040196
:104140000002C11002070501027B2001070581075B
:10415000F228004422400722810720010009074479
:10416000F2130444F207FF4410039D2F0008BB0420
:1041700012BF0412C30410037D3D0008850412978A
:1041800004128D0412AB0412B50412BF04121243C0
:1041900010060202004083044057791702034523AA
:0641A00004037D03000092
:0400000508003FA907
:00000001FF
